ACPI: RSDP 0x00000000000F0120 000024 (v02 LENOVO)
ACPI: RSDT 0x00000000AEBB20D4 000064 (v01 LENOVO TP-HR    00000210 PTL  00000002)
ACPI: XSDT 0x00000000AEBB2170 0000A4 (v01 LENOVO TP-HR    00000210 PTL  00000002)
ACPI: DSDT 0x00000000AEB9E000 011ECB (v02 LENOVO TP-HR    00000210 PTL  00000210)
ACPI: FACS 0x00000000AEAEB000 000040
ACPI: FACP 0x00000000AEB9C000 00010C (v05 LENOVO TP-HR    00000210 PTL  00000002)
ACPI: ODD8 0x00000000AEBB1000 000109 (v01 LENOVO TP-HR    00000210 PTL  00000002)
ACPI: ODDZ 0x00000000AEBB0000 00037C (v01 LENOVO TP-HR    00000210 PTL  00000002)
ACPI: HPET 0x00000000AEB9B000 000038 (v01 LENOVO TP-HR    00000210 PTL  00000002)
ACPI: APIC 0x00000000AEB9A000 00007A (v02 LENOVO TP-HR    00000210 PTL  00000002)
ACPI: MCFG 0x00000000AEB99000 00003C (v01 LENOVO TP-HR    00000210 PTL  00000002)
ACPI: SBST 0x00000000AEB98000 000030 (v01 LENOVO TP-HR    00000210 PTL  00000002)
ACPI: FPDT 0x00000000AEB97000 000064 (v01 LENOVO TP-HR    00000210 PTL  00000002)
ACPI: UEFI 0x00000000AEB96000 000042 (v01 PTL    COMBUF   00000001 PTL  00000001)
ACPI: POAT 0x00000000AEAEA000 000055 (v03 LENOVO TP-HR    00000210 PTL  00000002)
ACPI: UEFI 0x00000000AEB95000 00003E (v01 LENOVO TP-HR    00000210 PTL  00000002)
ACPI: SSDT 0x00000000AEB94000 0009F8 (v02 AMD    AGESA    00000001 AMD  00000001)
ACPI: SSDT 0x00000000AEB92000 001F6E (v02 AMD    AGESA    00000001 MSFT 04000000)
ACPI: CRAT 0x00000000AEB91000 0002F8 (v01 AMD    AGESA    00000001 AMD  00000001)
ACPI: UEFI 0x00000000AEB90000 0002BA (v01 LENOVO TP-HR    00000210 PTL  00000002)
ACPI: DBG2 0x00000000AEB8F000 00009F (v00 LENOVO TP-HR    00000210 PTL  00000002)
